:020000040800F2
:10000000D00400207D1100081F070008A30A000883
:1000100000000000000000000000000000000000E0
:10002000000000000000000000000000E30C0008D9
:100030000000000000000000330D00086309000804
:100040005B0F0008CB120008D71200086D130008E0
:100050006F1300087113000873130008751300086C
:10006000000000007713000879130008510A000807
:100070007B1300087D130008000000007F130008B8
:100080000000000000000000000000000000000070
:100090008113000800000000000000008313000826
:1000A00000000000851300080000000000000000B0
:1000B0000D0A00088713000800000000000000007F
:1000C00000B5010049B2002905D40121C206D20EB3
:1000D0009140B04A116000BDF0B5020052B2002A52
:1000E0001DD42D4A03005BB29B0804246343D258FD
:1000F000FF238407A40F08256C43A3409A438B0178
:10010000DBB28407A40F08256C43A3401343224AA3
:10011000040064B2A40804256C43135122E09E4AF3
:1001200003005BB21B071B0F083B9D0804235D43C4
:10013000994B040064B22407240F083CA408042649
:1001400074431B59FF248607B60F08277E43B4402B
:10015000A3438C01E4B28607B60F08277E43B44060
:100160001C435451F0BD10B50400601E80214904A9
:10017000884201D301200EE0601E884908600321F7
:100180000020C043FFF7A8FF002085490860072032
:1001900084490860002010BD00E400E080B506201E
:1001A00081490870FA2040007F494860FA204000E9
:1001B0007D49886001207D490870FA2040007B4914
:1001C0004860FA2040007949886079480068012138
:1001D000014377480160764800684007FBD57548C1
:1001E00000688821C90301437248016070480068B3
:1001F0008021490401436E4801606D480068800118
:10020000FBD56D480068012101436B4801606948D6
:1002100000680321014367480160664800684007A1
:1002200003D4644800680007F7D561480068634953
:1002300001405F48016000F094F961480068FA21CC
:10024000890000F015FAFFF78EFF5E480068032171
:1002500001435C4801605C480068402188435A497A
:1002600008605A48006880218901014357480160AD
:10027000A020C005006896490140A020C00501608B
:10028000944800688021C900014392480160924867
:1002900000688021C90501438F4801608F480068CC
:1002A000012101438D480160C82000018C4908608C
:1002B00064208C49086000208B4908608B480068E6
:1002C000C021C901014389480160894800681021A3
:1002D0000143874801608020C00500680121014377
:1002E0008020C00501607D480068802189020143AB
:1002F0007A4801607F488049086080480068012191
:1003000088437E4908607D4800682C2101437B4872
:1003100001607B480068802101437948016077488B
:10032000006801210143754801601C20FFF7C8FEE9
:1003300074480068012101437248016072480068F6
:100340008021C90101437048016070480068922112
:1003500001436E4801606E486E4908600B20FFF74C
:10036000AFFE6D4800688021490101436A48016081
:100370006A486B4908606B486949086006206A4909
:1003800008606A486A4908606A4800680028FBD12A
:1003900001BD000000E100E01CED00E014E000E021
:1003A00018E000E010E000E09C0000209000002039
:1003B000001002400C10024000200240FFFEFFFF30
:1003C0004C0000202C10024000040050200400507B
:1003D00080B5FFF7E3FE584800F0ADF900F0DAFA17
:1003E0005821564800F0F6FA55484D4908605248E1
:1003F00000F0B3F9534800F0D8FA524800780028CA
:100400000DD0022821D010D304283ED02DD30628A9
:1004100004D04AD3082852D04CD355E054E09A2156
:100420004900494800F0D6FA4EE01521474800F04F
:10043000D1FA012040490870424840683E4948606E
:10044000404880683C4988603EE01421404800F004
:10045000C1FA0220384908703A4840683649486075
:1004600038488068344988602EE01421384800F00C
:10047000B1FA032030490870324840682E4948607C
:10048000304880682C4988601EE01421304800F014
:10049000A1FA0420284908702A4840682649486083
:1004A00028488068244988600EE02C21294800F003
:1004B00091FAFEE73A21284800F08CFA04E0122174
:1004C000264800F087FAFFE706201E4908708BE7F0
:1004D000EFFFFFBF20000050240000503810024002
:1004E000280000402C000040380000401800004068
:1004F000200000403B0200000C440040004400404B
:100500000844004030100240A8000240440002406D
:10051000284400404C00024008580140CCCC000068
:10052000003000405555000004300040C409000070
:10053000083000400C30004090000020941000086B
:10054000AAAA00009C0000205C0F00080813000805
:1005500020130008F41100084011000838130008A7
:100560007047F8B5002000240025002600273749F1
:1005700009680C220A4000920099002904D004293D
:1005800012D008291CD01FE031480068400B4007FA
:10059000400F070001203900491C884080210902D2
:1005A00048432C49086043E02B480068C00603D547
:1005B0002A482849086002E029482649086037E0AF
:1005C00028482449086033E020480168F02080036F
:1005D00008401E490A68C02109041140224A800CC3
:1005E000105C0400880D401C05001848006880213C
:1005F000490208400600002E13D117480068C006C3
:1006000007D516486043290000F032F81149086008
:100610000EE013486043290000F02AF80D490860F5
:1006200006E010486043290000F022F809490860FC
:100630000E480649096809090907090F405C054980
:100640000968C140034A1160F1BD00000C1002406E
:10065000041002404C0000200010024000093D0040
:100660000024F40000127A005C1300084C13000808
:100670000022030A8B420BD203098B4219D2430892
:100680008B422ED2411A00D2014652411046704789
:10069000FF2209023FD012068B4205D31212090233
:1006A0008B4201D31212090203098B4219D300E0D5
:1006B000090AC3098B4201D3CB01C01A52418309F5
:1006C0008B4201D38B01C01A524143098B4201D3A3
:1006D0004B01C01A524103098B4201D30B01C01ACE
:1006E0005241C3088B4201D3CB00C01A5241830848
:1006F0008B4201D38B00C01A524143088B4201D375
:100700004B00C01A5241884200D3401A5241CFD206
:1007100001461046704708B500F0C2F908BDFEE773
:1007200080B5002800D1401C00F0BCF901009048C1
:1007300000F0C8F902BD00218E4A116000218E4AE6
:10074000116000218D4A117001210170FA214900C8
:100750004160FA2149008160704738B5040088483B
:1007600005682078012809D000D2F7E0032800D1DD
:100770008CE02DD3042800D1BCE0EFE07F48007866
:10078000012808D001207D4908707948794908601E
:1007900060687B490860002D19D17648006874496B
:1007A00000F0E2F906D1002072490860A06874499F
:1007B000086005E06E486F4908606068704908602D
:1007C0006C48006800F0E0F980B26E490860C5E04E
:1007D0006A480078022810D002206849087000207A
:1007E000644908606068FFF79BFF63490860012067
:1007F000654908606068624908606448006885422D
:1008000043D06148006800281CD05A4801685A4803
:10081000006800F0D6F957490860564800685C49FE
:1008200000F060FA2AD85248524908600020564920
:100830000860A068FFF774FF4F490860A06850493E
:1008400008601BE04B4800684B49096800F0F1F96B
:100850004849086047480068002100F057FA0DD267
:100860000020444908600120474908606068FFF79C
:1008700057FF414908606068414908603D48006889
:1008800000F082F980B23F49086067E03B48007899
:1008900003280DD00320394908700020354908602D
:1008A0006068FFF73DFF34490860606834490860BC
:1008B0003648006885421CD02E4801682E480068E2
:1008C00000F07FF92B4908602A480068304900F0A1
:1008D00009FA07D8264827490860002027490870E8
:1008E000002020702348006800F04EF980B22549AE
:1008F000086033E02148007804280DD004201F4907
:1009000008701B481B4908606068FFF709FF1A4917
:10091000086060681A4908601C48006885421CD05D
:10092000144800681449096800F083F91149086007
:1009300010480068002100F0E9F907D200200D49B5
:10094000086000200D4908700020207009480068E8
:1009500000F01AF980B20B490860FFE70B48056008
:1009600031BD07480068401E054908607047000017
:100970000000C842B0000020B4000020C8000020E1
:10098000A800002038000040B8000020AC00002083
:100990000100C84280B5002037490860002037496F
:1009A0000860374800F0C6F901BD10B504003348AF
:1009B0000068C0070DD531480068012188432F49E0
:1009C00008602D480168200000F0B7F900202A498E
:1009D000086010BD00B5294A1268920715D4274A4D
:1009E000126802231343254A1360264A1268012322
:1009F0009A43244B1A60244A1060244A1160214A09
:100A00001268012313431F4A136000BD80B52048BC
:100A1000006800900098800619D51E4800681649A5
:100A200009680A00521C144B1A60154A50541249A6
:100A300009688906890E104A11600100C9B20A29A5
:100A400005D10E49096801220A430C490A6001BD1B
:100A500000B511480068800406D510480068802160
:100A6000890101430D480160044800680221884360
:100A70000249086000BD0000C0000020C400002042
:100A80005000002044000240500002404800024054
:100A90001C44004024440040000002400400024086
:100AA0007047FEE79D2102000AD002D4491E921829
:100AB000FCD5C905100A1206524100D3012A48414B
:100AC0007047000030B405004D400122D2071540A8
:100AD0004B180418240E25D01B0E2CD0FF2C31D01F
:100AE000FF2B34D0E41A00020902104311434308DB
:100AF0004808D10D1B1A02D2641EDB181B18DB1824
:100B0000834200D31B1A4941F9D37F3423DDFF2CE4
:100B100005DAE40548086041284330BC7047FF20EF
:100B2000C005F9E728001B0E03D0FF2BF5D14902C1
:100B3000F3D0D043F1E7FF2C01D14002F9D1FF20DF
:100B4000C005E9E74002F4D1FF2BF8D1F1E7280016
:100B50004902E2D0EDE70B0200202442DCD15B1217
:100B60009B1CD9D9D805D7E7944602000A439218AE
:100B700008D0884206D1012212060018D042084649
:100B800000D88042624670470122D2070118090E40
:100B90007F3910D449421F310FD4001805D2C0014B
:100BA0001043C84000D5D0437047C0011043C8402F
:100BB00005D440427047002070470042F3D5100032
:100BC00070470122D20703004B402ED4431A01D2B2
:100BD000C01AC91830B44B180418240E1B0E22D0AA
:100BE000FF2C20D0E31A182B1DDC09021143C40D81
:100BF000641E0002104394461925ED1A0A00AA400B
:100C0000D940451801D36D08A41CE405D209280A6F
:100C10002D062A436546AA41604103181B0EFF2B8F
:100C200001D3C00DC00530BC7047514006E05140B3
:100C3000CCE70122D20703004B40F8D4431A03D279
:100C4000C01AC9185040514030B44B180902114322
:100C50000418240E1B0E40D0FF2C3AD025009D41D5
:100C60000BD31ED8C50D4002401A0BD3ED05010071
:100C7000400AC90591416841D5E7C50D40024918B0
:100C8000401AD0D001214008491C0018FCD58C42E4
:100C900004D36D1A000AED054019C4E7E8051040B9
:100CA000C1E7182DBFDCAC1C0D00E140E5414D4013
:100CB000012D4941C40D00021043451A01D46D199C
:100CC0009543641EE405280A2D069541604130BC19
:100CD0007047FF2BA7D1D843A5E72442A3D100201A
:100CE000A1E7FEE70CB4012212060318DA4207D886
:100CF0004B18DA4204D802000A43921802D2814209
:100D00000CBC7047FCD088420CBC70470CB401226C
:100D100012060318DA4207D84B18DA4204D8020048
:100D20000A43921802D288420CBC7047FCD0814220
:100D3000FAE7FEE76D4908607047F8B506000F0056
:100D4000072030700025062D19D269480421694317
:100D50004058009000240098005D002801D0641CD9
:100D6000F9E72300009A39006048006800F028F88D
:100D7000002802D12900317001E06D1CE3E73078D2
:100D8000401E012803D9801E01280CD917E0022338
:100D9000320039005548006800F02FF8002801D1D2
:100DA000082030700BE00123320039004F48006802
:100DB00000F023F8002801D108203070FFE7F1BDD2
:100DC000F2B501000024E4430098984201D22000CB
:100DD00012E000250098C01AA8420CD30026485DF6
:100DE000975DB84205D1761C6D1C9E42F7D1E81A7A
:100DF00002E06D1CEEE72000F2BDFFB587B00500F4
:100E00000A98032801D302200A90002400200899A0
:100E1000884209D2295C252904D103A9042262430E
:100E20008850641C401CF2E70A980221484384421F
:100E300001D0002058E003A80A9908225143401825
:100E4000001F00680899891E884201D000204BE0ED
:100E50000A98022814D102A826490A6802600022D2
:100E600004990020032807D20B18EB5C02AE365C15
:100E70005E409219401CF5E7002A01D0002033E0C3
:100E800008220021684600F037F800210A988142C4
:100E900023D20023012203A808264E438019466866
:100EA000761E03A808274F43C059B0420FD2A85D51
:100EB000302802DBA85D3A2801DB002014E0A85DA1
:100EC000303850431B180A204243761EE9E7684633
:100ED00004264E438351491CD8E70098099948607D
:100EE00001980999886001200BB0F0BDBC0000207A
:100EF000340000206813000810B504000800110039
:100F00000200200000F002F8200010BD1206130AB3
:100F10001A43130C1A4300BF094205D0830705D0BA
:100F20000270401C491EF9D17047000013001039AF
:100F300006D330B41400150010393CC0FCD230BCCC
:100F4000490700D30CC000D504C0890002D3028039
:100F5000801C002900D502707047FEE70A3D3D3D28
:100F60003D3D3D3D3D3D3D3D3D3D3D3D3D3D3D3DB1
:100F70003D3D3D3D3D3D3D3D3D3D3D3D3D3D3D3DA1
:100F80003D3D3D3D3D3D0A226822202D207468698B
:100F9000732068656C700A22626C696E6B20256F25
:100FA0006E2074696D6520696E206D732520256F34
:100FB00066662074696D6520696E206D7325222038
:100FC0002D20626C696E6B206D6F64652E0A22663F
:100FD00061646520256F6E2074696D6520696E20DF
:100FE0006D732520256F66662074696D6520696EB6
:100FF000206D732522202D2066616465206F6E2090
:10100000616E64206F6666206D6F64652E0A2266CD
:10101000616465206F6E202574696D6520696E209E
:101020006D732522202D2066616465206F6E206D12
:101030006F64652E0A2266616465206F66662025EE
:1010400074696D6520696E206D732522202D2066E0
:10105000616465206F6666206D6F64652E0A227379
:10106000746F7022202D204350552048414C544528
:101070004420666F72203130207365632C207468C1
:10108000656E2077696C6C2072657365742E0A3EFC
:10109000000000000A4C454420636F6E74726F6C50
:1010A0002070616E656C2E0A456E74657220636FE8
:1010B0006D6D616E64206F722027682720666F72E5
:1010C0002068656C702E0A416C6C20636F6D6D61D9
:1010D0006E6473206D75737420656E642062792070
:1010E0003C4C463E2830783041290A3E0000000042
:1010F000680A0000626C696E6B20000066616465BE
:101100002025000066616465206F6E2000000000ED
:1011100066616465206F66662000000073746F70FE
:101120000A00000000000020040000200C00002045
:1011300014000020200000202C00002000002000CF
:101140000A556E6B6E6F776E20636F6D6D616E64A6
:101150002E2053656E642027682720746F206C69E9
:10116000737420616C6C2061766961626C652063C8
:101170006F6D6D616E64732E0A3E0000094880F346
:10118000088804200168090E1F22914205D10648F3
:10119000012101600548002101600548804705489C
:1011A00000470000D004002034100240000001403D
:1011B00061050008ED12000870B40123002413E05B
:1011C0000168001D194202D04D466918491E0C6085
:1011D000091D121F042AFAD20D00960701D50C80B2
:1011E000AD1C1A4000D02C700268001D002AE7D107
:1011F00070BC70470A53797374656D2073746F7097
:101200007065642E0A5761697420313020736563FC
:101210006F6E647320666F722072657365742E0A38
:101220000000000030B401220EE00368C3184468D7
:101230000830144202D04D462C19641E1D682560EA
:101240001B1D241D091FF9D10168001D0029ECD1C7
:1012500030BC704710B5074979441831064C7C44BE
:10126000163404E0081D0A68891888470100A14265
:10127000F8D110BD08000000280000003DFFFFFF6E
:101280007C000000500000200000000099FFFFFFDC
:10129000500000005CFEFFFF000000200000000086
:1012A00000F00DF8002801D0FFF7D4FF00BF00BF09
:1012B000002000BF00BFFFF78BF800F002F801200C
:1012C000704780B500F002F801BDFEE707463846DA
:1012D00000F002F8FBE7FEE780B500BF00BF024A5E
:1012E00011001820ABBEFBE72600020005480146AE
:1012F00003B4684680F3098800BF00BF00BF00BF89
:10130000FFF7CEFFA5EDF5FE0A426C696E6B206D0E
:101310006F6465207365747465642E0A3E00000076
:101320000A46616465206D6F646520736574746539
:10133000642E0A3E000000000A57726F6E6720702C
:101340006172616D65746572730A000000000000CF
:101350000000000001020304060708090304060850
:101360000C1018203000000025202500FEE7FEE7C5
:10137000FEE7FEE7FEE7FEE7FEE7FEE7FEE7FEE745
:08138000FEE7FEE7FEE7FEE7D1
:04000005080012EDF0
:00000001FF
