:020000040800F2
:1000000000040020C10000083B0100086D01000849
:1000100000000000000000000000000000000000E0
:100020000000000000000000000000006F01000858
:1000300000000000000000007101000873010008CA
:100040007501000877010008790100087B010008AC
:100050007D0100087F01000881010008830100087C
:1000600000000000850100088701000889010008E0
:100070008B0100088D010008000000008F010008BE
:100080000000000000000000000000000000000070
:10009000910100080000000000000000930100082A
:1000A00000000000950100080000000000000000B2
:1000B00097010008990100080000000000000000FE
:1000C000094880F3088804200168090E1F22914224
:1000D00005D106480121016005480021016005485D
:1000E000804705480047000000040020341002400B
:1000F000000001409D0100085101000800F00DF8CA
:10010000002801D000BF00BF00BF00BF002000BF1B
:1001100000BF00F004F800F006F80120704780B539
:1001200000F005F8FEE780B500F002F801BD704769
:100130000746384600F002F8FBE7FEE780B500BF4F
:1001400000BF024A11001820ABBEFBE726000200E8
:100150000548014603B4684680F3098800BF00BF24
:1001600000BF00BFFFF7CAFFA5EDF5FEFEE7FEE703
:10017000FEE7FEE7FEE7FEE7FEE7FEE7FEE7FEE757
:10018000FEE7FEE7FEE7FEE7FEE7FEE7FEE7FEE747
:0E019000FEE7FEE7FEE7FEE7FEE70000704731
:04000005080001519D
:00000001FF
