:020000040800F2
:10000000080400207904000873040008770400083D
:1000100000000000000000000000000000000000E0
:100020000000000000000000000000004B05000878
:1000300000000000000000005705000871020008E1
:10004000AD050008AF050008B1050008B3050008BC
:10005000B5050008B7050008B9050008BB0500088C
:1000600000000000BD050008BF050008C10500082C
:10007000C3050008C505000800000000C70500080A
:100080000000000000000000000000000000000070
:10009000C90500080000000000000000CB050008B2
:1000A00000000000CD050008000000000000000076
:1000B000CF050008D1050008000000000000000086
:1000C000F0B5020052B2002A1DD46C4A03005BB2A4
:1000D0009B0804246343D258FF238407A40F0825F8
:1000E0006C43A3409A438B01DBB28407A40F08251D
:1000F0006C43A3401343614A040064B2A40804257E
:100100006C43135122E05E4A03005BB21B071B0FD6
:10011000083B9D0804235D43594B040064B2240747
:10012000240F083CA408042674431B59FF248607A7
:10013000B60F08277E43B440A3438C01E4B2860780
:10014000B60F08277E43B4401C435451F0BD10B590
:100150000400601E80214904884201D301200EE082
:10016000601E4849086003210020C043FFF7A8FF34
:10017000002045490860072044490860002010BD60
:1001800080B50020424908604248006801210143CF
:10019000404801603F4800684007FBD53E48006882
:1001A0008821C90301433C4801603A480068802126
:1001B0004904014337480160364800688001FBD597
:1001C0003648006801210143344801603248006824
:1001D00003210143304801602F480068400703D4E1
:1001E0002D4800680007F7D52A4800682C490140CF
:1001F0002848016000F05FF82A480068FA21890069
:1002000000F0E0F8FFF7A3FF274800680221014350
:1002100025480160254800684021014323480160CA
:1002200022480068802188432049086001BD80B5CC
:10023000FFF7A6FFFA20400015490860144800683F
:100240000028FBD11A4800680821014318480160C2
:10025000FA2040000E4908600D4800680028FBD1D4
:100260001348006880210903014311480160E1E758
:1002700007480068401E06490860704700E400E037
:100280001CED00E014E000E018E000E010E000E009
:1002900004000020001002400C1002400020024028
:1002A000FFFEFFFF000000202C1002400004005061
:1002B000180400507047F8B50020002400250026DF
:1002C0000027374909680C220A400092009900294A
:1002D00004D0042912D008291CD01FE0314800683E
:1002E000400B4007400F070001203900491C88409F
:1002F0008021090248432C49086043E02B480068EC
:10030000C00603D52A482849086002E02948264942
:10031000086037E028482449086033E02048016835
:10032000F020800308401E490A68C02109041140DA
:10033000224A800C105C0400880D401C05001848FF
:1003400000688021490208400600002E13D117489A
:100350000068C00607D516486043290000F032F84F
:10036000114908600EE013486043290000F02AF8A4
:100370000D49086006E010486043290000F022F8AB
:10038000094908600E480649096809090907090F63
:10039000405C05490968C140034A1160F1BD000095
:1003A0000C10024004100240000000200010024027
:1003B00000093D000024F40000127A0098050008AE
:1003C000880500080022030A8B420BD203098B42E6
:1003D00019D243088B422ED2411A00D20146524113
:1003E00010467047FF2209023FD012068B4205D308
:1003F000121209028B4201D31212090203098B4225
:1004000019D300E0090AC3098B4201D3CB01C01AFA
:10041000524183098B4201D38B01C01A52414309D7
:100420008B4201D34B01C01A524103098B4201D3C5
:100430000B01C01A5241C3088B4201D3CB00C01A32
:10044000524183088B4201D38B00C01A52414308AA
:100450008B4201D34B00C01A5241884200D3401A4C
:100460005241CFD201461046704708B500F002F85D
:1004700008BDFEE77047FEE7094880F308880420BE
:100480000168090E1F22914205D106480121016031
:1004900005480021016005488047054800470000E5
:1004A000080400203410024000000140B50200089A
:1004B0006D05000830B401220EE00368C3184468DB
:1004C0000830144202D04D462C19641E1D68256068
:1004D0001B1D241D091FF9D10168001D0029ECD145
:1004E00030BC704710B5074979441831064C7C443C
:1004F000163404E0081D0A68891888470100A142E3
:10050000F8D110BD0800000018000000A9FFFFFF8F
:100510000800000090000000000000200000000023
:1005200000F00DF8002801D0FFF7DCFF00BF00BF8E
:10053000002000BF00BFFFF77AFE00F002F80120A4
:10054000704780B500F002F801BDFEE70746384667
:1005500000F002F8FBE7FEE780B500BF00BF024AEB
:1005600011001820ABBEFBE726000200054801463B
:1005700003B4684680F3098800BF00BF00BF00BF16
:10058000FFF7CEFFA5EDF5FE000000000000000023
:100590000102030406070809030406080C101820CA
:1005A000300000000000200000000000FEE7FEE731
:1005B000FEE7FEE7FEE7FEE7FEE7FEE7FEE7FEE713
:1005C000FEE7FEE7FEE7FEE7FEE7FEE7FEE7FEE703
:0205D000FEE744
:040000050800056D7D
:00000001FF
